:100000000C9462000C948A000C948A000C948A0070
:100010000C948A000C948A000C948A000C948A0038
:100020000C948A000C948A000C948A000C948A0028
:100030000C948A000C948A000C948A000C948A0018
:100040000C941D040C9467040C948A000C948A0090
:100050000C948A000C948A000C948A000C948A00F8
:100060000C948A000C948A000000000024002700F1
:100070002A0000000000250028002B0000000000DE
:1000800023002600290004040404040404040202DA
:100090000202020203030303030301020408102007
:1000A0004080010204081020010204081020000012
:1000B0000008000201000003040700000000000027
:1000C00000009F0711241FBECFEFD8E0DEBFCDBFD9
:1000D00011E0A0E0B1E0EEE6F0E102C005900D9283
:1000E000AE34B107D9F722E0AEE4B1E001C01D9211
:1000F000A835B207E1F710E0C2E6D0E004C02197CE
:10010000FE010E941B08C136D107C9F70E942106D3
:100110000C9435080C94000080E991E00895833038
:1001200081F028F4813099F08230A9F00895873069
:10013000A9F08830C9F08430B1F4809180008F7DBF
:1001400003C0809180008F7780938000089584B5EC
:100150008F7784BD089584B58F7DFBCF8091B000EB
:100160008F778093B00008958091B0008F7DF9CF94
:100170001F93CF93DF93282F30E0F901E255FF4F13
:100180008491F901E656FF4FD491F901EA57FF4FE8
:10019000C491CC23A9F0162F81110E948F00EC2F5F
:1001A000F0E0EE0FFF1FEE58FF4FA591B4918FB70F
:1001B000F894EC91111108C0D095DE23DC938FBF29
:1001C000DF91CF911F910895DE2BF8CFCF93DF936E
:1001D00090E0FC01E656FF4F24918A579F4FFC01A7
:1001E00084918823D1F090E0880F991FFC01E85991
:1001F000FF4FA591B491FC01EE58FF4FC591D491EA
:1002000061110EC09FB7F8948C91E22FE0958E2378
:100210008C932881E223E8839FBFDF91CF910895DB
:100220008FB7F894EC91E22BEC938FBFF6CF3FB7EA
:10023000F8948091600190916101A0916201B09168
:10024000630126B5A89B05C02F3F19F00196A11D9B
:10025000B11D3FBFBA2FA92F982F8827BC01CD0110
:10026000620F711D811D911D43E0660F771F881F6E
:10027000991F4A95D1F708950F931F93CF93DF935A
:1002800020915A012F5F322F377030935A0120FF8F
:100290002BC020E831FD2064347009F02062205F1B
:1002A000FC01EC01239600E011E06485662329F04F
:1002B00070E0C8010E94BF076F5F6187322F369FD1
:1002C000030E30E0311D1124311110C01682662357
:1002D00011F0615061873196EC17FD0731F7DF911E
:1002E000CF911F910F91089520E0D4CF31503683E4
:1002F000EECF4F925F927F928F929F92AF92BF927A
:10030000CF92DF92EF92FF920F931F93CF93DF93E1
:100310002C01EB010E941701F20127853089621B35
:10032000730B6A307105B0F3F8948A819B811816BB
:1003300019060CF03EC1E881F9810BB100687BB170
:100340007F777BB9B9848E812B2D281B822F2E833A
:100350004F85042E000C550BAA81BB81EC84DD84F3
:10036000CE84E394D394C3949F8138859A848B84FC
:10037000108120E0F32E622F322F308111278894D4
:100380003111380F08F43FEF81958894E0FC130F8A
:1003900017958894E1FC130F17958894E2FC130FCE
:1003A00017958894E3FC130F17958894E4FC130FBA
:1003B00017958894E5FC130F17958894E6FC130FA6
:1003C00017958894E7FC130F17958894232FE11055
:1003D000212F8B0D122F002C0BB917FF7BB9318108
:1003E000222788947BB93111390F0BB916FF7BB9DD
:1003F00008F43FEF919588947BB9D0FC230F0BB99B
:1004000015FF7BB927958894D1FC230F7BB92795DD
:1004100088940BB914FF7BB9D2FC230F27958894DD
:100420007BB9D3FC230F0BB913FF7BB927958894B5
:10043000D4FC230F7BB9279588940BB912FF7BB9A5
:10044000D5FC230F279588947BB9D6FC230F0BB9D5
:1004500011FF7BB927958894D7FC230F7BB927958B
:1004600088940BB910FF7BB9132FD110122F990D5F
:100470007BB900C00BB917FF7BB932812227889462
:100480007BB931113F0D0BB916FF7BB908F43FEF73
:10049000E40FF51F7BB9C0FC230F0BB915FF7BB927
:1004A00027958894C1FC230F7BB9279588940BB9B5
:1004B00014FF7BB9C2FC230F279588947BB9C3FC3A
:1004C000230F0BB913FF7BB927958894C4FC230F26
:1004D0007BB9279588940BB912FF7BB9C5FC230F14
:1004E000279588947BB9C6FC230F0BB911FF7BB904
:1004F00027958894C7FC230F7BB9279588940BB95F
:1005000010FF7BB9132FC110122FF1947BB9F80C97
:10051000002C0BB917FF7BB93081222788947BB957
:100520003111380F0BB916FF7BB908F43FEF8195F5
:1005300088947BB9E0FC230F0BB915FF7BB9279595
:100540008894E1FC230F7BB9279588940BB914FF9D
:100550007BB9E2FC230F279588947BB9E3FC230F3A
:100560000BB913FF7BB927958894E4FC230F7BB963
:10057000279588940BB912FF7BB9E5FC230F2795CB
:1005800088947BB9E6FC230F0BB911FF7BB9279543
:100590008894E7FC230F7BB9279588940BB910FF4B
:1005A0007BB9132FE110122F8B0D7BB9119709F036
:1005B00013CFEA81FB8120EF30E0DF010E94F507D5
:1005C0006B017C01A3E0F694E794D794C794AA95B5
:1005D000D1F730E020E0A9018AE9E89F0E0E411D25
:1005E000F89F400D511D11244F0F511DCA01B0E05D
:1005F000A0E0880F991FAA1FBB1F8C0D9D1DAE1D6B
:10060000BF1D893E43E09407A105B10508F434C03D
:10061000885E9340A109B10942E0B695A7959795E8
:1006200087954A95D1F747E0849F080E211D949F36
:10063000200D311D1124290F311D6091590170E0E9
:10064000860F971F820F931F40915C0150915D01AF
:1006500060915E0170915F01292F3327420F531F74
:10066000611D711D40935C0150935D0160935E01BB
:1006700070935F018093590178940E941701F201F1
:10068000708B6787DF91CF911F910F91FF90EF9053
:10069000DF90CF90BF90AF909F908F907F905F90B2
:1006A0004F900895579A08956F927F928F92CF92AC
:1006B000DF92EF92FF920F931F93CF93DF93CDB70B
:1006C000DEB762970FB6F894DEBF0FBECDBF6C01E8
:1006D0007A013801822EDC011C962C91CA0157FF49
:1006E00004C088279927841B950B7A8369839C8390
:1006F0008B839E838D836D867E868F86213049F520
:10070000CE0101960E943C0183E0888B1A8A198AE7
:10071000F7FE02C08DEF888BD601ED91FC91048429
:10072000F585E02DBE016F5F7F4FC601099562968A
:100730000FB6F894DEBF0FBECDBFDF91CF911F91F2
:100740000F91FF90EF90DF90CF908F907F906F9000
:1007500008951C861B861A86198618861F82D4CF98
:10076000EF92FF920F931F93CF93DF93CDB7DEB736
:1007700062970FB6F894DEBF0FBECDBF7C01DC01DF
:100780001C968C917A8369835C834B835E834D8353
:100790000D871E872F878130F9F4CE0101960E94C4
:1007A0003C01188A1A8A198AD701ED91FC910484B8
:1007B000F585E02DBE016F5F7F4FC70109956296F9
:1007C0000FB6F894DEBF0FBECDBFDF91CF911F9162
:1007D0000F91FF90EF9008951C861B861A8619864C
:1007E00018861F82DECF90E080E00895FC018585A9
:1007F000968508950F931F93CF93DF9300D01F9298
:10080000CDB7DEB7AB0119821A821B82DC01ED91F4
:10081000FC910190F081E02D00E010E020E0BE01AD
:100820006F5F7F4F09950F900F900F90DF91CF91E1
:100830001F910F9108950E9430081F920F920FB6DA
:100840000F9211242F933F938F939F93AF93BF9356
:1008500080915C0190915D01A0915E01B0915F017A
:1008600030915B0126E0230F2D3758F50296A11D2C
:10087000B11D20935B0180935C0190935D01A09377
:100880005E01B0935F018091600190916101A09140
:100890006201B09163010196A11DB11D80936001B9
:1008A00090936101A0936201B0936301BF91AF91F6
:1008B0009F918F913F912F910F900FBE0F901F909E
:1008C000189529E8230F0396A11DB11DD2CF1F92C1
:1008D0000F920FB60F9211244F925F926F927F92F8
:1008E0009F92AF92BF92CF92DF92EF92FF920F93BF
:1008F0001F932F933F934F935F936F937F938F93A8
:100900009F93AF93BF93EF93FF93CF93DF9300D069
:100910001F92CDB7DEB72EB52F3F21F410924302C0
:10092000109242028091420290914302FC01EC5BE2
:10093000FD4F208382309105D9F5809145028230A8
:1009400059F4E0914602E63038F4F0E0EE0FFF1F74
:10095000E45BFD4F80818EBD809142029091430205
:10096000019690934302809342020F900F900F9054
:10097000DF91CF91FF91EF91BF91AF919F918F91B7
:100980007F916F915F914F913F912F911F910F91A7
:10099000FF90EF90DF90CF90BF90AF909F907F90AF
:1009A0006F905F904F900F900FBE0F901F90189513
:1009B00083309105B9F480914502813069F6E09168
:1009C0004602EA3048F661E080914702811101C099
:1009D00060E0F0E0EE0FFF1FEE5DFE4F80810E94B1
:1009E000B800BACF069709F0B7CF8091450284309E
:1009F00009F0B2CF809158018111AECF81E0809390
:100A00005801E091460220914702509148026091BE
:100A1000490240914A028E2F90E033E0E39FF001BB
:100A20001124E257FE4F30E02817390734F0608375
:100A30005183428301963396F7CFD0906401809121
:100A4000670190916801A0916901B0916A01892BB9
:100A50008A2B8B2BD9F00E94170100915401109121
:100A600055012091560130915701601B710B820B8B
:100A7000930B0091670110916801209169013091F9
:100A80006A016017710782079307C8F20E94170175
:100A900060935401709355018093560190935701D0
:100AA000E0916F01F0917001309759F040916B0126
:100AB00050916C0160916D0170916E018D2D0995C1
:100AC000D82EE0907301F09074014D2C512C712CB4
:100AD000612CE114F10409F459C0D7011C96CC90A3
:100AE0001C9780916501909166018436910510F400
:100AF0001C961C92D701ED91FC91A280B3801982C3
:100B00001A821B82DD2079F1F701369610E000E0B1
:100B10002191222319F19280992001F130E050E0D7
:100B200040E02F5F3F4F4F4F5F4FC301B2010E9424
:100B3000AF079B01AC01892D90E0B0E0A0E0BC01C3
:100B4000CD016F5F7F4F8F4F9F4F0E94AF07A1E096
:100B5000B0E0AC0FBD1FA00FB11F8C930F5F1F4FF4
:100B600003301105A9F609811A812B81F70145850A
:100B7000568562817381C701F5010995D7011C96DD
:100B8000CC921C971496ED90FC90A3CF80915201CB
:100B9000909153019C012F5F3F4F3093530120935D
:100BA000520149970CF44AC08FB7F89420915C0128
:100BB00030915D0140915E0150915F018FBF809146
:100BC0004E0190914F01A0915001B0915101281B0D
:100BD000390B4A0B5B0B21F421E030E040E050E0A0
:100BE000E0915201F091530188EE93E0E89FB0014B
:100BF000E99F700DF89F700D1124072E000C880BD3
:100C0000990B0E94D30730936601209365011092DF
:100C10005301109252012FB7F89480915C0190918A
:100C20005D01A0915E01B0915F012FBF80934E01E5
:100C300090934F01A0935001B0935101109258012D
:100C40008BCE789484B5826084BD84B5816084BD88
:100C500085B5826085BD85B5816085BD80916E005A
:100C6000816080936E00109281008091810082608B
:100C700080938100809181008160809381008091C8
:100C800080008160809380008091B10084608093B7
:100C9000B1008091B00081608093B00080917A00B3
:100CA000846080937A0080917A00826080937A00D9
:100CB00080917A008E7F80937A0080917A0080689C
:100CC00080937A001092C100E4E4F2E088E0DF0152
:100CD0001D928A95E9F7109243021092420261E058
:100CE0008CE00E94E6008CB580648CBD8CB5806879
:100CF0008CBDC2E2D1E056E3E52E51E0F52EEC16B4
:100D0000FD0669F4C6E3D1E002E411E00C171D070B
:100D100089F08881229660E00E94E600F7CF188172
:100D2000229661E0812F0E94E60060E0812F0E9400
:100D3000B800E5CF80918601811145C010927801FD
:100D4000109277018FEF80937B0180937C018093D9
:100D50007D0180937E0180937F018093800181E0FB
:100D600080938101109283011092820110927A0186
:100D7000109279018091730190917401892B31F463
:100D800085E791E09093740180937301E091710184
:100D9000F0917201309721F085E791E0958384838B
:100DA00085E791E090937201809371011092850123
:100DB0001092840184E191E0909376018093750113
:100DC00081E080938601579A8EE891E090937801B4
:100DD000809377018CE390E090938301809382016C
:100DE0008091670190916801A0916901B0916A01B9
:100DF000843CE9E09E07A105B10520F484EC99E06C
:100E0000A0E0B0E08093670190936801A09369012E
:100E1000B0936A0140E0E42E40E0F42E02E411E0D9
:100E2000D0E0C0E0D8018D919D918D018130910578
:100E300009F05EC0FE01EA5CFE4F2081318133275C
:100E4000F901E255FF4F8491F901E656FF4FD49026
:100E5000F901EA57FF4FC490CC2009F446C0811134
:100E60000E948F00EC2DF0E0EE0FFF1FE458FF4FC3
:100E7000A591B491EC91DE2291E080E009F490E03C
:100E8000FE01E45BFD4F908381832296CC30D10537
:100E900009F0C8CF0E9417012B013C0184E6882E7F
:100EA000912CA12CB12C0E94170164197509860997
:100EB0009709683E734081059105A8F3B1E08B1A4C
:100EC0009108A108B108E8EE4E0EE3E05E1E611C39
:100ED000711C81149104A104B10429F7E114F104F7
:100EE00009F49CCF0E94000099CF90E080E0C8CF29
:100EF000029759F6FE01EA5CFE4F80818E3008F0C1
:100F00008E508770806480937C0080917A0080642A
:100F100080937A0080917A0086FDFCCF90917800D2
:100F200080917900FE01E45BFD4F8927982789278E
:100F3000959587959595879591838083A6CFE4E6CF
:100F4000F1E08FEF808312821182148613868FEF77
:100F50009FEFDC0187839087A187B2870895DB012B
:100F60008F939F930E94FC07BF91AF91A29F800D2A
:100F7000911DA39F900DB29F900D1124089597FB92
:100F8000072E16F4009407D077FD09D00E940708B9
:100F900007FC05D03EF4909581959F4F089570957C
:100FA00061957F4F0895A1E21A2EAA1BBB1BFD017C
:100FB0000DC0AA1FBB1FEE1FFF1FA217B307E40738
:100FC000F50720F0A21BB30BE40BF50B661F771F90
:100FD000881F991F1A9469F7609570958095909570
:100FE0009B01AC01BD01CF0108950E942108B7FF0C
:100FF0000895821B930B08950E942108A59F900DD0
:10100000B49F900DA49F800D911D11240895AA1BDB
:10101000BB1B51E107C0AA1FBB1FA617B70710F0E3
:10102000A61BB70B881F991F5A95A9F78095909515
:10103000BC01CD010895EE0FFF1F0590F491E02D46
:101040000994A29FB001B39FC001A39F700D811DA1
:101050001124911DB29F700D811D1124911D0895C1
:0E10600081E090E0F8940C943508F894FFCFEE
:10106E00000000001B041B041B04FA03F603F30329
:10107E0000000000B00354035203FA03F6038C0081
:10108E0079010000010002000300040005000700C2
:10109E000000010002001400150000000600070009
:0E10AE00030002000200010001000100010029
:00000001FF
