:100000000C9461000C947E000C947E000C947E0095
:100010000C947E000C947E000C947E000C947E0068
:100020000C947E000C947E000C947E000C947E0058
:100030000C947E000C947E000C947E000C947E0048
:100040000C9439010C9483010C947E000C947E0076
:100050000C947E000C947E000C947E000C947E0028
:100060000C947E000C947E0000000000230026000B
:10007000290000000000240027002A0000000000E2
:10008000250028002B0004040404040404040202D4
:100090000202020203030303030301020408102007
:1000A0004080010204081020010204081020000012
:1000B0000008000201000003040700000000000027
:1000C000000011241FBECFEFD8E0DEBFCDBF11E08E
:1000D000A0E0B1E0E6EEF5E002C005900D92AE3290
:1000E000B107D9F721E0AEE2B1E001C01D92AD3415
:1000F000B207E1F70E94E8010C94F1020C940000B1
:10010000833081F028F4813099F08230A1F0089595
:100110008730A9F08830B9F08430D1F48091800024
:100120008F7D03C0809180008F7780938000089539
:1001300084B58F7702C084B58F7D84BD089580918A
:10014000B0008F7703C08091B0008F7D8093B000A6
:1001500008951F93CF93DF93282F30E0F901E255E4
:10016000FF4F8491F901E656FF4FD491F901EA5708
:10017000FF4FC491CC23C1F0162F81110E94800043
:10018000EC2FF0E0EE0FFF1FE458FF4FA591B49164
:100190009FB7F894111104C08C91D095D82302C058
:1001A000EC91DE2BDC939FBFDF91CF911F910895DF
:1001B000CF93DF9390E0FC01E656FF4F2491FC01C2
:1001C000EA57FF4F8491882361F190E0880F991FCF
:1001D000FC01EE58FF4FC591D491FC01E458FF4F4C
:1001E000A591B491611109C09FB7F89488812095B9
:1001F00082238883EC912E230BC0623061F49FB779
:10020000F8948881322F309583238883EC912E2BAC
:100210002C939FBF06C08FB7F894E8812E2B2883BC
:100220008FBFDF91CF9108953FB7F8948091490136
:1002300090914A01A0914B01B0914C0126B5A89B29
:1002400005C02F3F19F00196A11DB11D3FBFBA2F68
:10025000A92F982F8827820F911DA11DB11DBC01C8
:10026000CD0142E0660F771F881F991F4A95D1F78D
:1002700008951F920F920FB60F9211242F933F9360
:100280008F939F93AF93BF938091450190914601C7
:10029000A0914701B09148013091440123E0230F20
:1002A0002D3720F40196A11DB11D05C026E8230FAE
:1002B0000296A11DB11D20934401809345019093A6
:1002C0004601A0934701B093480180914901909164
:1002D0004A01A0914B01B0914C010196A11DB11DA5
:1002E0008093490190934A01A0934B01B0934C0134
:1002F000BF91AF919F918F913F912F910F900FBE22
:100300000F901F9018951F920F920FB60F92112405
:100310002F933F934F935F936F937F938F939F930D
:10032000AF93BF93EF93FF932EB52F3F21F410921D
:100330002F0110922E0180912E0190912F01FC012E
:10034000E05DFE4F20838230910581F48091310180
:10035000823021F5E0913201EC3000F5F0E0EE0F53
:10036000FF1FE85CFE4F80818EBD18C00397B1F47B
:1003700080913101813091F4E0913201E63170F4E5
:1003800061E080913301811101C060E0F0E0EE0F87
:10039000FF1FE050FF4F80810E94A90080912E0135
:1003A00090912F01019690932F0180932E01FF9140
:1003B000EF91BF91AF919F918F917F916F915F91DD
:1003C0004F913F912F910F900FBE0F901F90189556
:1003D000789484B5826084BD84B5816084BD85B520
:1003E000826085BD85B5816085BD80916E0081602C
:1003F00080936E00109281008091810082608093D2
:1004000081008091810081608093810080918000D3
:100410008160809380008091B10084608093B100FE
:100420008091B00081608093B00080917A008460F8
:1004300080937A0080917A00826080937A00809124
:100440007A00816080937A0080917A00806880933E
:100450007A001092C10088E0E0E3F1E0DF011D9234
:100460008A95E9F710922F0110922E0161E08CE03D
:100470000E94D8008CB580648CBD8CB580688CBD22
:10048000C0E0D1E0B1E0CC32DB0759F01881229610
:1004900061E0812F0E94D80060E0812F0E94A900B6
:1004A000F1CFC6E1D1E0E1E0CE32DE0729F450E041
:1004B000C52E50E0D52E67C08881229660E00E944C
:1004C000D800F1CFD7018D919D917D0181309105AB
:1004D00009F065C0F801208131813327F901E25527
:1004E000FF4F8491F901E656FF4FB490F901EA57A6
:1004F000FF4FA490AA2009F44FC081110E948000F0
:10050000EA2DF0E0EE0FFF1FE859FF4FA591B491DF
:10051000EC91BE2291E080E009F490E09883898319
:1005200022960E5F1F4FF1E0C035DF0709F0CACFFA
:100530000E9414012B013C0184E6882E912CA12CF1
:10054000B12C0E941401DC01CB0184199509A60984
:10055000B709883E9340A105B10598F3B1E08B1A25
:100560009108A108B108E8EE4E0EE3E05E1E611CA2
:10057000711C81149104A104B10419F7C114D104B0
:1005800011F00E940000C8E3D1E042E2E42E41E015
:10059000F42E06E111E0C7CF90E080E0BFCF0297D4
:1005A00009F0BECFD8018C918E3008F08E50877044
:1005B000806480937C0080917A00806480937A00CC
:1005C00080917A0086FDFCCF80917800209179009F
:1005D00090E0922B9595879595958795998388833B
:0605E0009FCFF894FFCF4D
:1005E60000000100020003000400050006000700E9
:1005F60000000100020014001500000006000700BC
:0E0606000300020002000100010001000100DB
:107E0000112484B714BE81FFF0D085E080938100F7
:107E100082E08093C00088E18093C10086E0809377
:107E2000C20080E18093C4008EE0C9D0259A86E02C
:107E300020E33CEF91E0309385002093840096BBD3
:107E4000B09BFECF1D9AA8958150A9F7CC24DD24C4
:107E500088248394B5E0AB2EA1E19A2EF3E0BF2EE7
:107E6000A2D0813461F49FD0082FAFD0023811F036
:107E7000013811F484E001C083E08DD089C08234E0
:107E800011F484E103C0853419F485E0A6D080C0E4
:107E9000853579F488D0E82EFF2485D0082F10E0AE
:107EA000102F00270E291F29000F111F8ED06801E7
:107EB0006FC0863521F484E090D080E0DECF843638
:107EC00009F040C070D06FD0082F6DD080E0C81688
:107ED00080E7D80618F4F601B7BEE895C0E0D1E017
:107EE00062D089930C17E1F7F0E0CF16F0E7DF06D8
:107EF00018F0F601B7BEE89568D007B600FCFDCFD4
:107F0000A601A0E0B1E02C9130E011968C91119780
:107F100090E0982F8827822B932B1296FA010C0160
:107F200087BEE89511244E5F5F4FF1E0A038BF0790
:107F300051F7F601A7BEE89507B600FCFDCF97BE46
:107F4000E89526C08437B1F42ED02DD0F82E2BD052
:107F50003CD0F601EF2C8F010F5F1F4F84911BD097
:107F6000EA94F801C1F70894C11CD11CFA94CF0C13
:107F7000D11C0EC0853739F428D08EE10CD085E9AC
:107F80000AD08FE07ACF813511F488E018D01DD067
:107F900080E101D065CF982F8091C00085FFFCCF94
:107FA0009093C60008958091C00087FFFCCF809118
:107FB000C00084FD01C0A8958091C6000895E0E648
:107FC000F0E098E1908380830895EDDF803219F02E
:107FD00088E0F5DFFFCF84E1DECF1F93182FE3DFCA
:107FE0001150E9F7F2DF1F91089580E0E8DFEE27F6
:047FF000FF270994CA
:027FFE00040479
:0400000300007E007B
:00000001FF
